:020000040800F2
:1000000008040020A9100008351000083710000867
:10001000391000083B1000083D10000800000000E7
:100020000000000000000000000000003F10000879
:1000300041100008000000004310000845100008AF
:10004000C5100008C9100008CD100008D110000824
:10005000D510000851100008D9100008DD10000864
:10006000E1100008E5100008E9100008ED10000894
:10007000F1100008F5100008F9100008FD10000844
:100080000111000805110008091100080D110008F0
:100090001111000815110008191100081D110008A0
:1000A0002111000825110008291100082D11000850
:1000B0003111000835110008391100083D11000800
:1000C0004111000845110008491100084D110008B0
:1000D0005111000855110008591100085D11000860
:1000E0006111000865110008691100086D11000810
:1000F0007111000875110008791100087D110008C0
:100100008111000885110008891100088D1100086F
:100110009111000895110008991100089D1100081F
:10012000A1110008A5110008A9110008AD110008CF
:10013000B1110008B5110008B9110008BD1100087F
:10014000C1110008C5110008C9110008CD1100082F
:10015000D1110008D5110008D9110008DD110008DF
:10016000E1110008E5110008E9110008ED1100088F
:10017000F1110008F5110008F91100080000000055
:10018000FD1100080112000838B504000025207890
:10019000C0076FD5DFF81C06006810F00C000428BB
:1001A0000BD0DFF81006006810F00C0008280ED104
:1001B000DFF804060068400209D5DFF80006006891
:1001C000800357D56068002854D10120CFE16068D2
:1001D000B0F5803F08D1DFF8E405006850F48030C6
:1001E000DFF8D815086024E06068B0F5A02F10D1C2
:1001F000DFF8C805006850F48020DFF8C0150860FB
:10020000DFF8B805006850F48030DFF8B0150860FA
:100210000FE0DFF8A805006830F48030DFF89C15A7
:100220000860DFF89805006830F48020DFF88C154E
:100230000860606800280ED000F011FB0500DFF8B0
:100240007C050068800315D400F009FB401B65287D
:10025000F5D303208BE100F002FB0500DFF85C051D
:100260000068800306D500F0FAFA401B6528F5D334
:1002700003207CE1207880072BD5DFF83805006863
:1002800010F00C0F0BD0DFF82C05006810F00C00FC
:10029000082837D1DFF820050068400232D4DFF8A3
:1002A0001C050068800704D5E068012801D0012002
:1002B0005DE1DFF8080500685FF0F851B1FA81F1FF
:1002C00030F0F800226912FA01F10843DFF8EC146B
:1002D00008602078000762D5606900284CD00120B2
:1002E000DFF8DC14086000F0BAFA0500DFF8D40487
:1002F0000068800753D400F0B2FA401B0328F5D3FE
:10030000032034E1E068002823D00120DFF8B8148E
:10031000086000F0A4FA0500DFF8A0040068800778
:1003200006D400F09CFA401B0328F5D303201EE1FD
:10033000DFF8880400685FF0F851B1FA81F130F01D
:10034000F800226912FA01F10843DFF8701408601E
:10035000BFE70020DFF87014086000F080FA0500A5
:10036000DFF8580400688007B3D500F078FA401B26
:100370000328F5D30320FAE00020DFF844140860D6
:1003800000F06DFA0500DFF83C040068800706D530
:1003900000F065FA401B0328F5D30320E7E020783E
:1003A00040077CD500200090DFF82004006850F062
:1003B0008050DFF818140860DFF81004006810F0AF
:1003C000805000900098DFF80804006850F48070B6
:1003D000DFF8FC13086000F042FA0500DFF8F003D4
:1003E0000068C00506D400F03AFA401B0328F5D394
:1003F0000320BCE0A068012808D1DFF8D80300681A
:1004000050F00100DFF8CC13086023E0A068052855
:1004100010D1DFF8C003006850F00400DFF8B41317
:100420000860DFF8B003006850F00100DFF8A413A3
:1004300008600FE0DFF89C03006840084000DFF828
:1004400094130860DFF88C03006830F00400DFF8D4
:1004500084130860A068002810D000F000FA05009E
:10046000DFF870030068800719D400F0F8F9401B2A
:1004700041F289318842F3D3032078E000F0EFF9AC
:100480000500DFF850030068800708D500F0E7F9A1
:10049000401B41F289318842F3D3032067E0A06911
:1004A000002863D0DFF80C03006810F00C00082867
:1004B0005AD0A069022844D10020DFF81C1308603C
:1004C00000F0CDF90500DFF8F4020068800106D5E0
:1004D00000F0C5F9401B0328F5D3032047E0DFF8FF
:1004E000FC02B0FA80F14FF44040B0FA80F2F02004
:1004F000B0FA80F0E369256A2B43656A15FA01F1C9
:100500001943A36A5B085B1E13FA02F21143E26A05
:1005100012FA00F00843DFF8A01208600120DFF8AB
:10052000B812086000F09BF90500DFF8900200683F
:1005300080011BD400F093F9401B0328F5D303205E
:1005400015E00020DFF89012086000F088F905003F
:10055000DFF868020068800108D500F080F9401BD0
:100560000328F5D3032002E0012000E0002032BD83
:1005700070B504000D000026DFF86402006810F07A
:100580000F00A8420BD2DFF858020570DFF85002C6
:10059000006810F00F00A84201D00120C0E02078D0
:1005A000800709D5DFF80C02006830F0F000A16880
:1005B0000843DFF8001208602078C00772D5606831
:1005C000012806D1DFF8F4010068800315D401206A
:1005D000A6E06068022802D06068032806D1DFF830
:1005E000DC010068800108D4012099E0DFF8CC012B
:1005F0000068800701D4012092E0DFF8B8010068AC
:100600008008800061680843DFF8A811086000F0E6
:1006100026F90600606801280FD1DFF8980100680C
:1006200010F00C0004283DD000F019F9801B41F2B5
:1006300089318842F1D3032072E0606802280FD12B
:10064000DFF87001006810F00C0008282AD000F0D4
:1006500006F9801B41F289318842F1D303205FE023
:10066000606803280FD1DFF84C01006810F00C001F
:100670000C2817D000F0F3F8801B41F28931884232
:10068000F1D303204CE0DFF82C01006810F00C0FD0
:1006900008D000F0E4F8801B41F289318842F2D39F
:1006A00003203DE0DFF83801006810F00F008542BC
:1006B0000BD2DFF82C010570DFF82401006810F080
:1006C0000F00A84201D001202AE02078400707D57A
:1006D0003848006830F4E050E16808433549086064
:1006E0002078000708D53348006830F4604021695D
:1006F00050EAC1002F49086000F013F82D4909683D
:100700005FF07062B2FA82F2364B11F0F001D14024
:10071000C95CC84034490860002000F088F8002017
:1007200070BD00200020002100202248006810F049
:100730000C00002804D0042804D0082804D034E099
:100740002A4833E02A4831E01B48006810F03F0097
:100750001949096849020DD517490968244AB2FBAD
:10076000F0F047F6C07211401C4AB2FA82F2D14052
:1007700048430CE0104909681C4AB2FBF0F047F608
:10078000C0721140154AB2FA82F2D14048430A4978
:10079000096811F440314FF44042B2FA82F2D1407C
:1007A000491C4900B0FBF1F000E0104870470E48CA
:1007B00000687047083802400438024000380240A0
:1007C000800E4742743802400000474240380240E1
:1007D0000070004070380240600047420000FE0395
:1007E000003C024098100008000000200024F400A3
:1007F00000127A0080B52348006850F40070214947
:1008000008602048006850F480601E4908601D4858
:10081000006850F480701B490860032000F09CF8C9
:10082000002000F004F800F0DCF8002002BD10B554
:100830000400154800684FF47A71B0FBF1F000F045
:10084000A5F8002221005FF0FF3000F089F80020B9
:1008500010BD0E480068401C0C49086070470B48EA
:100860000068704731B5FFF7FAFF0400009D15F1ED
:10087000010F00D06D1CFFF7F2FF001BA842FAD356
:1008800031BD0000003C02400000002004000020B8
:1008900010F00701484800684FF6FF021040474A31
:1008A00052EA012108434449086070474248006801
:1008B000C0F302207047012110F01F029140404A0E
:1008C00040B2400942F82010704740B2002808D5D5
:1008D00009013C4A40B210F00F00801800F8041CD7
:1008E00003E00901384A40B28154704710B410F057
:1008F0000700D0F10703052B01D3042301E0D0F159
:100900000703041D072C01D2002000E0C01E0124B3
:1009100014FA03F35B1E19408140012313FA00F01F
:10092000401E1040084310BC704780B5411EB1F115
:10093000807F01D301200EE0401E244908600F2172
:100940005FF0FF30FFF7C1FF00202149086007205A
:1009500020490860002002BD80B5FFF799FF01BD66
:1009600070B504000D0016000020FFF79FFF320055
:100970002900FFF7BBFF0100200040B2FFF7A5FFF1
:1009800070BD80B540B2FFF796FF01BD80B5FFF79F
:10099000CCFF02BD042806D10E48006850F00400C8
:1009A0000C49086005E00B48006830F00400094974
:1009B00008607047000000000CED00E00000FA0540
:1009C00000E100E018ED00E000E400E014E000E0E9
:1009D00018E000E010E000E080B500F001F801BD93
:1009E000704780B50320FFF7B7FF002200217FF09A
:1009F0000B00FFF7B5FF002200217FF00A00FFF790
:100A0000AFFF002200217FF00900FFF7A9FF0022BD
:100A100000217FF00400FFF7A3FF002200217FF0F8
:100A20000300FFF79DFF002200217FF00100FFF788
:100A300097FF002200215FF0FF30FFF791FF0022B7
:100A400000210520FFF78CFF0520FFF79AFF01BD6D
:100A500078B4002400230024002237E00825EDB2FA
:100A600012F00306F6B2B600B5402C43DFF8D851B9
:100A7000960845F82640DFF8D44124689C434D6829
:100A8000ED0300D51C43DFF8C4512C60DFF8C041F2
:100A900024689C434D68AD0300D51C43DFF8B0517A
:100AA0002C60DFF8B04124689C434D68ED0200D50E
:100AB0001C43DFF8A0512C60674C24689C434D68B0
:100AC000AD0200D51C43644B1C60521C102A80F000
:100AD000AA80012313FA02F40B682340A342F4D145
:100AE0004C68022C02D04C68122C15D1D40810EBA3
:100AF0008404246A0F2512F00706F6B2B600B5404A
:100B0000AC430D6912F00706F6B2B600B5402C43AF
:100B1000D50810EB85052C62046803251600F6B293
:100B20007600B540AC430D7915F003051600F6B21A
:100B30007600B5402C4304604C68012C08D04C680A
:100B4000022C05D04C68112C02D04C68122C17D105
:100B5000846803251600F6B27600B540AC43CD6834
:100B60001600F6B27600B5402C4384604468012537
:100B70009540AC434D68C5F3001595402C43446047
:100B8000C46803251600F6B27600B540AC438D6804
:100B90001600F6B27600B5402C43C4604C68E40001
:100BA00093D5002400942D4C246854F480442B4D9C
:100BB0002C602A4C246814F480440094009C224C3D
:100BC000950854F825400F2512F00306F6B2B6003A
:100BD000B540AC43224DA84201D100253FE7214D4D
:100BE000A84201D101253AE71F4DA84201D10225B3
:100BF00035E71E4DA84201D1032530E71C4DA84220
:100C000001D104252BE71B4DA84201D1052526E77C
:100C1000194DA84201D1062521E7184DA8427FF4BD
:100C20001DAF07251BE771BC704752B2002A02D0E6
:100C300089B2816102E089B2090481617047426929
:100C400089B251404161704708380140003C014081
:100C5000043C0140083C01400C3C01404438024047
:100C6000000002400004024000080240000C024064
:100C7000001002400014024000180240001C024014
:100C800000B593B0002000905B48006850F08050A1
:100C9000594908605848006810F08050009000984A
:100CA000002000905548006850F480405349086087
:100CB0005248006810F4804000900098012006908F
:100CC0005FF48030079002200C905FF480000D905C
:100CD00008200E904FF4A8700F900220109007206B
:100CE000119006A8FFF750FA0F2001900220029001
:100CF000002003904FF4A05004904FF480500590D2
:100D0000052101A8FFF734FCFFF751FD4FF47A717C
:100D1000B0FBF1F0FFF73AFE0420FFF73BFE0022A4
:100D200000215FF0FF30FFF71BFE13B000BD10B5D0
:100D30000024FFF75FFDFFF7A3FF00F065F818E060
:100D400001224FF400712E48FFF76FFF012220218E
:100D50002C48FFF76AFF012240212A48FFF765FF70
:100D60004FF47A70FFF77EFD641CE4B2072C00D1CB
:100D70000024E4B2002C09D0022C11D00BD3042C97
:100D800022D016D3062CDBD029D3E9E70021062098
:100D900000F097F8E4E70121002000F092F8DFE787
:100DA0000021002000F08DF80121022000F089F8D8
:100DB000D6E7002220211348FFF737FF0122402108
:100DC0001048FFF732FFCBE7002240210D48FFF724
:100DD0002CFF012220210B48FFF727FFC0E700224C
:100DE00020210848FFF721FF01224FF40071044839
:100DF000FFF71BFFB4E700004038024000700040DE
:100E0000001C02400010024000B587B00020009096
:100E10004748006850F08000454908604448006831
:100E200010F080000090009800200090404800687A
:100E300050F010003E4908603D48006810F0100076
:100E400000900098002000903948006850F0100091
:100E5000374908603648006810F01000009000988C
:100E600000224FF400713348FFF7DFFE00222021FB
:100E70003148FFF7DAFE002240212F48FFF7D5FE68
:100E80004FF400700190012002900220049001A90B
:100E90002848FFF7DDFD202001900120029002206C
:100EA000049001A92448FFF7D3FD402001900120C0
:100EB00002900220049001A91F48FFF7C9FD07B066
:100EC00000BD10B5040049B200290FD1A00704D518
:100ED000002220211848FFF7A8FE0620044225D052
:100EE000002240211448FFF7A0FE1FE049B201296B
:100EF0000FD1A00704D5012220210F48FFF795FE4E
:100F00000620044212D0012240210B48FFF78DFE3B
:100F10000CE0A00703D520210748FFF790FE06202C
:100F2000044203D040210448FFF789FE10BD0000B1
:100F300030380240001C0240001002401248006895
:100F400050F47000104908601048006850F001002B
:100F50000E49086000200E4908600C4800680D49E1
:100F600008400A4908600C480C49086007480068B6
:100F700030F48020054908600020094908605FF0CE
:100F8000006008490860704788ED00E000380240C2
:100F900008380240FFFFF6FE1030002404380240FB
:100FA0000C38024008ED00E010B450F8041B79B191
:100FB0000268436812180830DC0744BFA9F1010435
:100FC000E31852F8044B43F8044B091FF9D1ECE73E
:100FD00010BC704710B5074979441831064C7C4461
:100FE000163404E00A68081D511888470146A142DA
:100FF000F8D110BD2C0000003C0000004EF68851D6
:10100000CEF20001086840F470000860BFF34F8F13
:10101000BFF36F8F4FF00070E1EE100A70470000D1
:1010200089FFFFFF08000000DC0100000000002035
:10103000000000007047FEE7FEE7FEE7FEE77047AE
:101040007047704780B5FFF704FCFFF7C5FC01BD92
:101050007047000000F00BF8002801D0FFF7BAFF3E
:101060000020C046C046FFF762FE00F002F80120F3
:10107000704700F001B800000746384600F002F85B
:10108000FBE7000080B5C046C046024A11001820A8
:10109000ABBEFBE7260002000000000000000000DD
:1010A0000102030406070809014880470148004778
:1010B0003D0F0008B9100008C046C046FFF79EFF6C
:1010C000FFF7C8FFFFF7FEBFFFF7FEBFFFF7FEBF4A
:1010D000FFF7FEBFFFF7FEBFFFF7FEBFFFF7FEBF44
:1010E000FFF7FEBFFFF7FEBFFFF7FEBFFFF7FEBF34
:1010F000FFF7FEBFFFF7FEBFFFF7FEBFFFF7FEBF24
:10110000FFF7FEBFFFF7FEBFFFF7FEBFFFF7FEBF13
:10111000FFF7FEBFFFF7FEBFFFF7FEBFFFF7FEBF03
:10112000FFF7FEBFFFF7FEBFFFF7FEBFFFF7FEBFF3
:10113000FFF7FEBFFFF7FEBFFFF7FEBFFFF7FEBFE3
:10114000FFF7FEBFFFF7FEBFFFF7FEBFFFF7FEBFD3
:10115000FFF7FEBFFFF7FEBFFFF7FEBFFFF7FEBFC3
:10116000FFF7FEBFFFF7FEBFFFF7FEBFFFF7FEBFB3
:10117000FFF7FEBFFFF7FEBFFFF7FEBFFFF7FEBFA3
:10118000FFF7FEBFFFF7FEBFFFF7FEBFFFF7FEBF93
:10119000FFF7FEBFFFF7FEBFFFF7FEBFFFF7FEBF83
:1011A000FFF7FEBFFFF7FEBFFFF7FEBFFFF7FEBF73
:1011B000FFF7FEBFFFF7FEBFFFF7FEBFFFF7FEBF63
:1011C000FFF7FEBFFFF7FEBFFFF7FEBFFFF7FEBF53
:1011D000FFF7FEBFFFF7FEBFFFF7FEBFFFF7FEBF43
:1011E000FFF7FEBFFFF7FEBFFFF7FEBFFFF7FEBF33
:1011F000FFF7FEBFFFF7FEBFFFF7FEBFFFF7FEBF23
:0C120000FFF7FEBF0024F4000000000017
:04000005080010B926
:00000001FF
